:10000000758000743831DD31FD740E31DD31FD74E1
:100010000131DD31FD740631DD31FD748631DD31B4
:10002000FD75B0FF759000E5B0540FB40FF631FDCB
:10003000E5B0540FB40F0280F531FDE5B0540FB4B4
:100040000F0280EA7590FEE5B0540FB40F21759051
:10005000FDE5B0540FB40F1C7590FBE5B0540FB420
:100060000F177590F7E5B0540FB40F1202002E90E1
:100070000300800D90030480089003088003900320
:100080000C135003A380FAE493F8E8940A5006E8AE
:100090002430D34003E8243731ED75A000E5A054A7
:1000A0001FB4000280F7E5A0FFBF010302000FBFED
:1000B0000207742B31ED0200D4BF0407742D31ED1B
:1000C0000200D4BF0807742A31ED0200D4742F3126
:1000D000ED0200D475B0FF759000E5B0540FB40F79
:1000E000F631FDE5A0B4011F740431DD31FD74204B
:1000F00031ED31ED740631DD31FD748731DD31FDD7
:10010000C2A031FD02009AE5B0540FB40F0280D1B5
:1001100031FDE5B0540FB40F0280C67590FEE5B016
:10012000540FB40F217590FDE5B0540FB40F1C753A
:1001300090FBE5B0540FB40F177590F7E5B0540F6E
:10014000B40F120200E1900300800D9003048008B8
:10015000900308800390030C135003A380FAE493E8
:10016000F9E9940A5006E92430D34003E9243731F1
:10017000ED75A000743D31ED75A000BF0207E829C0
:10018000F5800201A4BF0407E899F5800201A4BF2D
:100190000809E889F0A4F5800201A4E889F084F553
:1001A000800201A4E580FE54F0C4FDC3940A500609
:1001B000ED2430FD8004ED2437FDEE540FFEC39492
:1001C0000A5005EE24308003EE2437FCED31EDECCF
:1001D00031ED75A000E5A0B401FB02000FF580C26F
:1001E000A5C2A6D2A731FDC2A775A00022F580D274
:1001F000A5C2A6D2A731FDC2A775A000227B327A84
:06020000FFDAFEDBFA222A
:10030000000102030405060708090A0B0C0D0E0F75
:00000001FF
