:100EA7001E44317374204E4F3D20000000000000A7
:100EB700000000000000000000000000000000002B
:100EC7001E08326E64204E4F3D20000000000000D7
:100ED700000000000000000000000000000000000B
:100EE7001E264F50455241544F52203D20000000CE
:100EF70000000000000000000000000000000000EB
:100F08007F987E3A120F507F30120F707F947E11B7
:100F1800120F507F30120F707F2C7E01120F507FFE
:100F280030120F707F587E02120F507F38120F70E8
:100F38007F0F120F707F01120F707F06120F707FE4
:040F480080020F70A4
:100C1800E4F562F563F564F565F566F567120F08A6
:100C280074442563F8E6FF600D120F880563E563D9
:100C380070EE056280EA120A968F6C120E1E8E689C
:100C48008F69AF6C120F887F01120F7074262567A9
:100C5800F8E6FF600D120F880567E56770EE056618
:100C680080EA120A968F6E120F887F01120F707435
:100C7800082565F8E6FF600D120F880565E56570C3
:100C8800EE056480EA120A968F6D120E1E8E6A8F28
:100C98006BAF6D120F887F01120F70E56E24D6605E
:100CA8002424FD601324FE602E24047040E56B2587
:100CB80069FDE56A3568800AC3E569956BFDE568F5
:100CC800956AFC8022AC6AAD6BAE68AF691209C543
:100CD800AC06AD07EC8010AC6AAD6BAE68AF6912BC
:100CE80009D7AC06AD07EC12090B120CF9E4FEFFAC
:010CF80022D9
:100F70008FA0C2A0C2A1D2A27F327E00120F50C2A7
:080F8000A27F327E00020F5037
:100F88008FA0D2A0C2A1D2A27F327E00120F50C27F
:080F9800A27F327E00020F501F
:040F4C007FA07E867E
:100F5000E4FDFCC3ED9FEC9E5015E4FBFA0BBB00D7
:0F0F6000010AEB64054A70F50DBD00010C80E439
:010F6F00225F
:100A96007F73EF64307042EF6431703DEF64327003
:100AA60038EF64337033EF6434702EEF6435702999
:100AB600EF64367024EF6437701FEF6438701ABF26
:100AC6003917BF4114BF4211BF430EBF440BBF4588
:100AD60008EF64467003020C15C290D291D292D2EE
:100AE6009320B00E20900B7F30120F88120F4C7F90
:100AF600302220B10E20900B7F31120F88120F4C3E
:100B06007F312220B20E20900B7F32120F88120FF7
:100B16004C7F322220B30E20900B7F33120F8812A7
:100B26000F4C7F3322D290C291D292D29320B00E34
:100B360020910B7F34120F88120F4C7F342220B184
:100B46000E20910B7F35120F88120F4C7F35222015
:100B5600B20E20910B7F36120F88120F4C7F362271
:100B660020B30E20910B7F37120F88120F4C7F3760
:100B760022D290D291C292D29320B00E20920B7FB5
:100B860038120F88120F4C7F382220B10E20920B9C
:100B96007F39120F88120F4C7F392220B20E209215
:100BA6000B7F41120F88120F4C7F412220B30E207B
:100BB600920B7F42120F88120F4C7F4222D290D2A4
:100BC60091D292C29320B00E20930B7F43120F88CE
:100BD600120F4C7F432220B10E20930B7F44120F3D
:100BE60088120F4C7F442220B20E20930B7F4512B1
:100BF6000F88120F4C7F452230B303020A983093B8
:100C060003020A987F46120F88120F4C7F46227FF6
:010C160000DD
:010C170022BA
:100E1E00EF120A1B0E56300E58310E5D320E623333
:100E2E000E67340E6C350E71360E76370E7B380E1D
:100E3E0080390E85410E8A420E8F430E94440E99D0
:100E4E00450E9E4600000E56804B7E007F01227E90
:100E5E00007F02227E007F03227E007F04227E001E
:100E6E007F05227E007F06227E007F07227E007F86
:100E7E0008227E007F09227E007F0A227E007F0BE1
:100E8E00227E007F0C227E007F0D227E007F0E22AE
:090E9E007E007F0F22E4FEFF221A
:080CF9008F728E718D708C6FFB
:100D0100E4F573F574F575FFFE7D207C41AB72AAA5
:100D110071A970A86F1208001209448E768F77AFFF
:100D210072AE71AD70AC6F1209448E788F79C3E5E4
:100D3100786480948050107CFF7DFF1209C58E7805
:100D41008F797F2D120F88AE78AF797C007D0A12E2
:100D510009D78F74E57460062430FF120F88E5749B
:100D610075F00AA4FEC3E5799EF5732430FF120FD6
:100D7100887F2E120F88AE76AF777C007D0A12092C
:100D8100D7ED2430F575FF120F887F807E84020F26
:010D91005011
:10080000EC4D6011E8497017ED33EC3304600DE4F2
:10081000FCFFFEFD22E933E8330470F80209B01250
:10082000097B58046009E4CC248150062850090251
:1008300009BA2840030209B7C0E0EB4A7044B98006
:1008400006D0E0FB0209A6EF4E701CBD8008EBFF4E
:10085000EAFEE9FD80EBE98DF0A4FEE5F00208E98F
:10086000E9CDF9EAFEEBFFEF89F0A4FCE5F0CE89D3
:10087000F0A42EFFE435F0CD89F0A42DFEE435F090
:100880008067EF4E7005BD80D780C3EF8BF0A4ACBE
:10089000F0EE8BF0A42CFCE435F0F8EF8AF0A42CF9
:1008A000E5F038FCE433CB8DF0A42CFCE5F03BF80C
:1008B000EE8AF0A42CFCE5F038F8E433CF89F0A4FC
:1008C0002CFCE5F038CF3400CE89F0A42FFFE5F002
:1008D0003EFEE433C98DF0A42EFEE5F039CD8AF05A
:1008E000A42FFFE5F03EFEE43DFD33D0E0FB5007D2
:1008F0000BBB000F0209BAEC2CFCEF33FFEE33FE0A
:06090000ED33FD02099237
:1009060075F020800E75F010800575F0087D007E6C
:10091600007F003392D530D503120A0DEC33401018
:10092600EF33FFEE33FEED33FDEC33FCD5F0ED2275
:0E093600E5F0247EA2D513CC92E7CDCEFF22B1
:10094400EDD2E7CD33EC3392D524814006E4FFFEAB
:10095400FDFC22FCE4CFCECDCC24E0501174FF800A
:10096400EDC3CC13CCCD13CDCE13CECF13CF0470A7
:07097400F030D5DE020A0D90
:10097B00E9D2E7C933E833F892D5EDD2E7CD33ECC2
:07098B0033FC5002B2D5223B
:10099200EC30E7100FBF000C0EBE00080DBD0004C6
:1009A2000BEB6014A2D5EB13FCED92E7FD2274FF72
:1009B200FCFDFEFF22E480F8A2D574FF13FC7D80CB
:0309C200E480EFDF
:03000000020D925C
:0C0D9200787FE4F6D8FD758179020DD958
:1009C500EF8DF0A4A8F0CF8CF0A428CE8DF0A42E46
:0209D500FE2200
:1009D700C2D5EC30E709B2D5E4C39DFDE49CFCEE3B
:1009E70030E715B2D5E4C39FFFE49EFE120A41C368
:1009F700E49DFDE49CFC8003120A4130D507C3E463
:060A07009FFFE49EFE22A9
:0E0A0D00C3E49FFFE49EFEE49DFDE49CFC22FA
:100A1B00D083D082F8E4937012740193700DA3A36A
:100A2B0093F8740193F5828883E47374029368607E
:060A3B00EFA3A3A380DF7E
:100D9E00020C18E493A3F8E493A34003F68001F247
:100DAE0008DFF48029E493A3F85407240CC8C33356
:100DBE00C4540F4420C8834004F456800146F6DF25
:100DCE00E4800B0102040810204080900EA7E47E00
:100DDE00019360BCA3FF543F30E509541FFEE4931A
:100DEE00A360010ECF54C025E060A840B8E493A3E1
:100DFE00FAE493A3F8E493A3C8C582C8CAC583CA0C
:100E0E00F0A3C8C582C8CAC583CADFE9DEE780BEC3
:010F070000E9
:100A4100BC000BBE0029EF8DF084FFADF022E4CC99
:100A5100F875F008EF2FFFEE33FEEC33FCEE9DEC62
:100A6100984005FCEE9DFE0FD5F0E9E4CEFD22EDA8
:100A7100F8F5F0EE8420D21CFEADF075F008EF2FF2
:100A8100FFED33FD4007985006D5F0F222C398FDE3
:050A91000FD5F0EA2280
:00000001FF
